{
  "_format": "hh-sol-artifact-1",
  "contractName": "NFT",
  "sourceName": "src/backend/contracts/NFT.sol",
  "abi": [
    {
      "inputs": [],
      "stateMutability": "payable",
      "type": "constructor"
    },
    {
      "anonymous": false,
      "inputs": [
        {
          "indexed": true,
          "internalType": "address",
          "name": "owner",
          "type": "address"
        },
        {
          "indexed": true,
          "internalType": "address",
          "name": "approved",
          "type": "address"
        },
        {
          "indexed": true,
          "internalType": "uint256",
          "name": "tokenId",
          "type": "uint256"
        }
      ],
      "name": "Approval",
      "type": "event"
    },
    {
      "anonymous": false,
      "inputs": [
        {
          "indexed": true,
          "internalType": "address",
          "name": "owner",
          "type": "address"
        },
        {
          "indexed": true,
          "internalType": "address",
          "name": "operator",
          "type": "address"
        },
        {
          "indexed": false,
          "internalType": "bool",
          "name": "approved",
          "type": "bool"
        }
      ],
      "name": "ApprovalForAll",
      "type": "event"
    },
    {
      "anonymous": false,
      "inputs": [],
      "name": "Brands__Not_Owner",
      "type": "event"
    },
    {
      "anonymous": false,
      "inputs": [
        {
          "indexed": true,
          "internalType": "address",
          "name": "previousOwner",
          "type": "address"
        },
        {
          "indexed": true,
          "internalType": "address",
          "name": "newOwner",
          "type": "address"
        }
      ],
      "name": "OwnershipTransferred",
      "type": "event"
    },
    {
      "anonymous": false,
      "inputs": [
        {
          "indexed": true,
          "internalType": "address",
          "name": "from",
          "type": "address"
        },
        {
          "indexed": true,
          "internalType": "address",
          "name": "to",
          "type": "address"
        },
        {
          "indexed": true,
          "internalType": "uint256",
          "name": "tokenId",
          "type": "uint256"
        }
      ],
      "name": "Transfer",
      "type": "event"
    },
    {
      "inputs": [
        {
          "internalType": "address",
          "name": "to",
          "type": "address"
        },
        {
          "internalType": "uint256",
          "name": "tokenId",
          "type": "uint256"
        }
      ],
      "name": "approve",
      "outputs": [],
      "stateMutability": "nonpayable",
      "type": "function"
    },
    {
      "inputs": [
        {
          "internalType": "address",
          "name": "owner",
          "type": "address"
        }
      ],
      "name": "balanceOf",
      "outputs": [
        {
          "internalType": "uint256",
          "name": "",
          "type": "uint256"
        }
      ],
      "stateMutability": "view",
      "type": "function"
    },
    {
      "inputs": [
        {
          "internalType": "uint256",
          "name": "tokenId",
          "type": "uint256"
        }
      ],
      "name": "getApproved",
      "outputs": [
        {
          "internalType": "address",
          "name": "",
          "type": "address"
        }
      ],
      "stateMutability": "view",
      "type": "function"
    },
    {
      "inputs": [],
      "name": "getTotalySupply",
      "outputs": [
        {
          "internalType": "uint256",
          "name": "",
          "type": "uint256"
        }
      ],
      "stateMutability": "view",
      "type": "function"
    },
    {
      "inputs": [
        {
          "internalType": "address",
          "name": "owner",
          "type": "address"
        },
        {
          "internalType": "address",
          "name": "operator",
          "type": "address"
        }
      ],
      "name": "isApprovedForAll",
      "outputs": [
        {
          "internalType": "bool",
          "name": "",
          "type": "bool"
        }
      ],
      "stateMutability": "view",
      "type": "function"
    },
    {
      "inputs": [
        {
          "internalType": "uint256",
          "name": "_tokenId",
          "type": "uint256"
        }
      ],
      "name": "isOwner",
      "outputs": [
        {
          "internalType": "bool",
          "name": "",
          "type": "bool"
        }
      ],
      "stateMutability": "view",
      "type": "function"
    },
    {
      "inputs": [
        {
          "internalType": "string",
          "name": "_tokenURI",
          "type": "string"
        }
      ],
      "name": "mint",
      "outputs": [],
      "stateMutability": "nonpayable",
      "type": "function"
    },
    {
      "inputs": [],
      "name": "name",
      "outputs": [
        {
          "internalType": "string",
          "name": "",
          "type": "string"
        }
      ],
      "stateMutability": "view",
      "type": "function"
    },
    {
      "inputs": [],
      "name": "owner",
      "outputs": [
        {
          "internalType": "address",
          "name": "",
          "type": "address"
        }
      ],
      "stateMutability": "view",
      "type": "function"
    },
    {
      "inputs": [
        {
          "internalType": "uint256",
          "name": "tokenId",
          "type": "uint256"
        }
      ],
      "name": "ownerOf",
      "outputs": [
        {
          "internalType": "address",
          "name": "",
          "type": "address"
        }
      ],
      "stateMutability": "view",
      "type": "function"
    },
    {
      "inputs": [],
      "name": "renounceOwnership",
      "outputs": [],
      "stateMutability": "nonpayable",
      "type": "function"
    },
    {
      "inputs": [
        {
          "internalType": "address",
          "name": "from",
          "type": "address"
        },
        {
          "internalType": "address",
          "name": "to",
          "type": "address"
        },
        {
          "internalType": "uint256",
          "name": "tokenId",
          "type": "uint256"
        }
      ],
      "name": "safeTransferFrom",
      "outputs": [],
      "stateMutability": "nonpayable",
      "type": "function"
    },
    {
      "inputs": [
        {
          "internalType": "address",
          "name": "from",
          "type": "address"
        },
        {
          "internalType": "address",
          "name": "to",
          "type": "address"
        },
        {
          "internalType": "uint256",
          "name": "tokenId",
          "type": "uint256"
        },
        {
          "internalType": "bytes",
          "name": "data",
          "type": "bytes"
        }
      ],
      "name": "safeTransferFrom",
      "outputs": [],
      "stateMutability": "nonpayable",
      "type": "function"
    },
    {
      "inputs": [
        {
          "internalType": "address",
          "name": "operator",
          "type": "address"
        },
        {
          "internalType": "bool",
          "name": "approved",
          "type": "bool"
        }
      ],
      "name": "setApprovalForAll",
      "outputs": [],
      "stateMutability": "nonpayable",
      "type": "function"
    },
    {
      "inputs": [
        {
          "internalType": "bytes4",
          "name": "interfaceId",
          "type": "bytes4"
        }
      ],
      "name": "supportsInterface",
      "outputs": [
        {
          "internalType": "bool",
          "name": "",
          "type": "bool"
        }
      ],
      "stateMutability": "view",
      "type": "function"
    },
    {
      "inputs": [],
      "name": "symbol",
      "outputs": [
        {
          "internalType": "string",
          "name": "",
          "type": "string"
        }
      ],
      "stateMutability": "view",
      "type": "function"
    },
    {
      "inputs": [
        {
          "internalType": "uint256",
          "name": "tokenId",
          "type": "uint256"
        }
      ],
      "name": "tokenURI",
      "outputs": [
        {
          "internalType": "string",
          "name": "",
          "type": "string"
        }
      ],
      "stateMutability": "view",
      "type": "function"
    },
    {
      "inputs": [],
      "name": "totalSupply",
      "outputs": [
        {
          "internalType": "uint256",
          "name": "",
          "type": "uint256"
        }
      ],
      "stateMutability": "view",
      "type": "function"
    },
    {
      "inputs": [
        {
          "internalType": "address",
          "name": "from",
          "type": "address"
        },
        {
          "internalType": "address",
          "name": "to",
          "type": "address"
        },
        {
          "internalType": "uint256",
          "name": "tokenId",
          "type": "uint256"
        }
      ],
      "name": "transferFrom",
      "outputs": [],
      "stateMutability": "nonpayable",
      "type": "function"
    },
    {
      "inputs": [
        {
          "internalType": "address",
          "name": "newOwner",
          "type": "address"
        }
      ],
      "name": "transferOwnership",
      "outputs": [],
      "stateMutability": "nonpayable",
      "type": "function"
    },
    {
      "inputs": [
        {
          "internalType": "address",
          "name": "_sendTo",
          "type": "address"
        },
        {
          "internalType": "uint256",
          "name": "_tokenId",
          "type": "uint256"
        }
      ],
      "name": "transferToken",
      "outputs": [],
      "stateMutability": "nonpayable",
      "type": "function"
    },
    {
      "inputs": [
        {
          "internalType": "uint256",
          "name": "_tokenId",
          "type": "uint256"
        }
      ],
      "name": "viewTokenURI",
      "outputs": [
        {
          "internalType": "string",
          "name": "",
          "type": "string"
        }
      ],
      "stateMutability": "view",
      "type": "function"
    }
  ],
  "bytecode": "0x60806040526040518060400160405280600781526020017f50726f64756374000000000000000000000000000000000000000000000000008152506040518060400160405280600381526020017f5052440000000000000000000000000000000000000000000000000000000000815250816000908051906020019062000088929190620001e1565b508060019080519060200190620000a1929190620001e1565b505050620000c4620000b86200011360201b60201c565b6200011b60201b60201c565b600060098190555033600860006101000a81548173ffffffffffffffffffffffffffffffffffffffff021916908373ffffffffffffffffffffffffffffffffffffffff160217905550620002f6565b600033905090565b6000600760009054906101000a900473ffffffffffffffffffffffffffffffffffffffff16905081600760006101000a81548173ffffffffffffffffffffffffffffffffffffffff021916908373ffffffffffffffffffffffffffffffffffffffff1602179055508173ffffffffffffffffffffffffffffffffffffffff168173ffffffffffffffffffffffffffffffffffffffff167f8be0079c531659141344cd1fd0a4f28419497f9722a3daafe3b4186f6b6457e060405160405180910390a35050565b828054620001ef9062000291565b90600052602060002090601f0160209004810192826200021357600085556200025f565b82601f106200022e57805160ff19168380011785556200025f565b828001600101855582156200025f579182015b828111156200025e57825182559160200191906001019062000241565b5b5090506200026e919062000272565b5090565b5b808211156200028d57600081600090555060010162000273565b5090565b60006002820490506001821680620002aa57607f821691505b60208210811415620002c157620002c0620002c7565b5b50919050565b7f4e487b7100000000000000000000000000000000000000000000000000000000600052602260045260246000fd5b612f4780620003066000396000f3fe608060405234801561001057600080fd5b50600436106101425760003560e01c806370a08231116100b8578063b88d4fde1161007c578063b88d4fde14610375578063c87b56dd14610391578063d85d3d27146103c1578063e7cb27b6146103dd578063e985e9c5146103fb578063f2fde38b1461042b57610142565b806370a08231146102e3578063715018a6146103135780638da5cb5b1461031d57806395d89b411461033b578063a22cb4651461035957610142565b806318160ddd1161010a57806318160ddd146101fd57806323b872dd1461021b57806339c7639c1461023757806342842e0e14610267578063496db3b9146102835780636352211e146102b357610142565b806301ffc9a71461014757806306fdde0314610177578063081812fc14610195578063095ea7b3146101c55780631072cbea146101e1575b600080fd5b610161600480360381019061015c9190612060565b610447565b60405161016e9190612498565b60405180910390f35b61017f610529565b60405161018c91906124b3565b60405180910390f35b6101af60048036038101906101aa9190612103565b6105bb565b6040516101bc9190612431565b60405180910390f35b6101df60048036038101906101da9190612020565b610601565b005b6101fb60048036038101906101f69190612020565b610719565b005b6102056107c0565b60405161021291906126b5565b60405180910390f35b61023560048036038101906102309190611f0a565b6107c6565b005b610251600480360381019061024c9190612103565b610826565b60405161025e9190612498565b60405180910390f35b610281600480360381019061027c9190611f0a565b6108c1565b005b61029d60048036038101906102989190612103565b6108e1565b6040516102aa91906124b3565b60405180910390f35b6102cd60048036038101906102c89190612103565b61093d565b6040516102da9190612431565b60405180910390f35b6102fd60048036038101906102f89190611e9d565b6109ef565b60405161030a91906126b5565b60405180910390f35b61031b610aa7565b005b610325610abb565b6040516103329190612431565b60405180910390f35b610343610ae5565b60405161035091906124b3565b60405180910390f35b610373600480360381019061036e9190611fe0565b610b77565b005b61038f600480360381019061038a9190611f5d565b610b8d565b005b6103ab60048036038101906103a69190612103565b610bef565b6040516103b891906124b3565b60405180910390f35b6103db60048036038101906103d691906120ba565b610d02565b005b6103e5610d39565b6040516103f291906126b5565b60405180910390f35b61041560048036038101906104109190611eca565b610d43565b6040516104229190612498565b60405180910390f35b61044560048036038101906104409190611e9d565b610dd7565b005b60007f80ac58cd000000000000000000000000000000000000000000000000000000007bffffffffffffffffffffffffffffffffffffffffffffffffffffffff1916827bffffffffffffffffffffffffffffffffffffffffffffffffffffffff1916148061051257507f5b5e139f000000000000000000000000000000000000000000000000000000007bffffffffffffffffffffffffffffffffffffffffffffffffffffffff1916827bffffffffffffffffffffffffffffffffffffffffffffffffffffffff1916145b80610522575061052182610e5b565b5b9050919050565b6060600080546105389061290b565b80601f01602080910402602001604051908101604052809291908181526020018280546105649061290b565b80156105b15780601f10610586576101008083540402835291602001916105b1565b820191906000526020600020905b81548152906001019060200180831161059457829003601f168201915b5050505050905090565b60006105c682610ec5565b6004600083815260200190815260200160002060009054906101000a900473ffffffffffffffffffffffffffffffffffffffff169050919050565b600061060c8261093d565b90508073ffffffffffffffffffffffffffffffffffffffff168373ffffffffffffffffffffffffffffffffffffffff16141561067d576040517f08c379a000000000000000000000000000000000000000000000000000000000815260040161067490612675565b60405180910390fd5b8073ffffffffffffffffffffffffffffffffffffffff1661069c610f10565b73ffffffffffffffffffffffffffffffffffffffff1614806106cb57506106ca816106c5610f10565b610d43565b5b61070a576040517f08c379a0000000000000000000000000000000000000000000000000000000008152600401610701906125f5565b60405180910390fd5b6107148383610f18565b505050565b8061072381610fd1565b610762576040517f08c379a000000000000000000000000000000000000000000000000000000000815260040161075990612595565b60405180910390fd5b3373ffffffffffffffffffffffffffffffffffffffff166107828361093d565b73ffffffffffffffffffffffffffffffffffffffff161480156107aa57506107a982610fd1565b5b156107bb576107ba3384846108c1565b5b505050565b60095481565b6107d76107d1610f10565b8261103d565b610816576040517f08c379a000000000000000000000000000000000000000000000000000000000815260040161080d90612695565b60405180910390fd5b6108218383836110d2565b505050565b60008161083281610fd1565b610871576040517f08c379a000000000000000000000000000000000000000000000000000000000815260040161086890612595565b60405180910390fd5b61087a8361093d565b73ffffffffffffffffffffffffffffffffffffffff163373ffffffffffffffffffffffffffffffffffffffff1614156108b657600191506108bb565b600091505b50919050565b6108dc83838360405180602001604052806000815250610b8d565b505050565b6060816108ed81610fd1565b61092c576040517f08c379a000000000000000000000000000000000000000000000000000000000815260040161092390612595565b60405180910390fd5b61093583610bef565b915050919050565b6000806002600084815260200190815260200160002060009054906101000a900473ffffffffffffffffffffffffffffffffffffffff169050600073ffffffffffffffffffffffffffffffffffffffff168173ffffffffffffffffffffffffffffffffffffffff1614156109e6576040517f08c379a00000000000000000000000000000000000000000000000000000000081526004016109dd90612655565b60405180910390fd5b80915050919050565b60008073ffffffffffffffffffffffffffffffffffffffff168273ffffffffffffffffffffffffffffffffffffffff161415610a60576040517f08c379a0000000000000000000000000000000000000000000000000000000008152600401610a57906125b5565b60405180910390fd5b600360008373ffffffffffffffffffffffffffffffffffffffff1673ffffffffffffffffffffffffffffffffffffffff168152602001908152602001600020549050919050565b610aaf611339565b610ab960006113b7565b565b6000600760009054906101000a900473ffffffffffffffffffffffffffffffffffffffff16905090565b606060018054610af49061290b565b80601f0160208091040260200160405190810160405280929190818152602001828054610b209061290b565b8015610b6d5780601f10610b4257610100808354040283529160200191610b6d565b820191906000526020600020905b815481529060010190602001808311610b5057829003601f168201915b5050505050905090565b610b89610b82610f10565b838361147d565b5050565b610b9e610b98610f10565b8361103d565b610bdd576040517f08c379a0000000000000000000000000000000000000000000000000000000008152600401610bd490612695565b60405180910390fd5b610be9848484846115ea565b50505050565b6060610bfa82610ec5565b6000600660008481526020019081526020016000208054610c1a9061290b565b80601f0160208091040260200160405190810160405280929190818152602001828054610c469061290b565b8015610c935780601f10610c6857610100808354040283529160200191610c93565b820191906000526020600020905b815481529060010190602001808311610c7657829003601f168201915b505050505090506000610ca4611646565b9050600081511415610cba578192505050610cfd565b600082511115610cef578082604051602001610cd792919061240d565b60405160208183030381529060405292505050610cfd565b610cf88461165d565b925050505b919050565b60006009549050610d1333826116c5565b610d1d81836116e3565b60096000815480929190610d309061296e565b91905055505050565b6000600954905090565b6000600560008473ffffffffffffffffffffffffffffffffffffffff1673ffffffffffffffffffffffffffffffffffffffff16815260200190815260200160002060008373ffffffffffffffffffffffffffffffffffffffff1673ffffffffffffffffffffffffffffffffffffffff16815260200190815260200160002060009054906101000a900460ff16905092915050565b610ddf611339565b600073ffffffffffffffffffffffffffffffffffffffff168173ffffffffffffffffffffffffffffffffffffffff161415610e4f576040517f08c379a0000000000000000000000000000000000000000000000000000000008152600401610e46906124f5565b60405180910390fd5b610e58816113b7565b50565b60007f01ffc9a7000000000000000000000000000000000000000000000000000000007bffffffffffffffffffffffffffffffffffffffffffffffffffffffff1916827bffffffffffffffffffffffffffffffffffffffffffffffffffffffff1916149050919050565b610ece81610fd1565b610f0d576040517f08c379a0000000000000000000000000000000000000000000000000000000008152600401610f0490612655565b60405180910390fd5b50565b600033905090565b816004600083815260200190815260200160002060006101000a81548173ffffffffffffffffffffffffffffffffffffffff021916908373ffffffffffffffffffffffffffffffffffffffff160217905550808273ffffffffffffffffffffffffffffffffffffffff16610f8b8361093d565b73ffffffffffffffffffffffffffffffffffffffff167f8c5be1e5ebec7d5bd14f71427d1e84f3dd0314c0f7b2291e5b200ac8c7c3b92560405160405180910390a45050565b60008073ffffffffffffffffffffffffffffffffffffffff166002600084815260200190815260200160002060009054906101000a900473ffffffffffffffffffffffffffffffffffffffff1673ffffffffffffffffffffffffffffffffffffffff1614159050919050565b6000806110498361093d565b90508073ffffffffffffffffffffffffffffffffffffffff168473ffffffffffffffffffffffffffffffffffffffff16148061108b575061108a8185610d43565b5b806110c957508373ffffffffffffffffffffffffffffffffffffffff166110b1846105bb565b73ffffffffffffffffffffffffffffffffffffffff16145b91505092915050565b8273ffffffffffffffffffffffffffffffffffffffff166110f28261093d565b73ffffffffffffffffffffffffffffffffffffffff1614611148576040517f08c379a000000000000000000000000000000000000000000000000000000000815260040161113f90612515565b60405180910390fd5b600073ffffffffffffffffffffffffffffffffffffffff168273ffffffffffffffffffffffffffffffffffffffff1614156111b8576040517f08c379a00000000000000000000000000000000000000000000000000000000081526004016111af90612555565b60405180910390fd5b6111c3838383611757565b6111ce600082610f18565b6001600360008573ffffffffffffffffffffffffffffffffffffffff1673ffffffffffffffffffffffffffffffffffffffff168152602001908152602001600020600082825461121e9190612821565b925050819055506001600360008473ffffffffffffffffffffffffffffffffffffffff1673ffffffffffffffffffffffffffffffffffffffff1681526020019081526020016000206000828254611275919061279a565b92505081905550816002600083815260200190815260200160002060006101000a81548173ffffffffffffffffffffffffffffffffffffffff021916908373ffffffffffffffffffffffffffffffffffffffff160217905550808273ffffffffffffffffffffffffffffffffffffffff168473ffffffffffffffffffffffffffffffffffffffff167fddf252ad1be2c89b69c2b068fc378daa952ba7f163c4a11628f55a4df523b3ef60405160405180910390a461133483838361175c565b505050565b611341610f10565b73ffffffffffffffffffffffffffffffffffffffff1661135f610abb565b73ffffffffffffffffffffffffffffffffffffffff16146113b5576040517f08c379a00000000000000000000000000000000000000000000000000000000081526004016113ac90612635565b60405180910390fd5b565b6000600760009054906101000a900473ffffffffffffffffffffffffffffffffffffffff16905081600760006101000a81548173ffffffffffffffffffffffffffffffffffffffff021916908373ffffffffffffffffffffffffffffffffffffffff1602179055508173ffffffffffffffffffffffffffffffffffffffff168173ffffffffffffffffffffffffffffffffffffffff167f8be0079c531659141344cd1fd0a4f28419497f9722a3daafe3b4186f6b6457e060405160405180910390a35050565b8173ffffffffffffffffffffffffffffffffffffffff168373ffffffffffffffffffffffffffffffffffffffff1614156114ec576040517f08c379a00000000000000000000000000000000000000000000000000000000081526004016114e390612575565b60405180910390fd5b80600560008573ffffffffffffffffffffffffffffffffffffffff1673ffffffffffffffffffffffffffffffffffffffff16815260200190815260200160002060008473ffffffffffffffffffffffffffffffffffffffff1673ffffffffffffffffffffffffffffffffffffffff16815260200190815260200160002060006101000a81548160ff0219169083151502179055508173ffffffffffffffffffffffffffffffffffffffff168373ffffffffffffffffffffffffffffffffffffffff167f17307eab39ab6107e8899845ad3d59bd9653f200f220920489ca2b5937696c31836040516115dd9190612498565b60405180910390a3505050565b6115f58484846110d2565b61160184848484611761565b611640576040517f08c379a0000000000000000000000000000000000000000000000000000000008152600401611637906124d5565b60405180910390fd5b50505050565b606060405180602001604052806000815250905090565b606061166882610ec5565b6000611672611646565b9050600081511161169257604051806020016040528060008152506116bd565b8061169c846118f8565b6040516020016116ad92919061240d565b6040516020818303038152906040525b915050919050565b6116df828260405180602001604052806000815250611a59565b5050565b6116ec82610fd1565b61172b576040517f08c379a0000000000000000000000000000000000000000000000000000000008152600401611722906125d5565b60405180910390fd5b80600660008481526020019081526020016000209080519060200190611752929190611cb1565b505050565b505050565b505050565b60006117828473ffffffffffffffffffffffffffffffffffffffff16611ab4565b156118eb578373ffffffffffffffffffffffffffffffffffffffff1663150b7a026117ab610f10565b8786866040518563ffffffff1660e01b81526004016117cd949392919061244c565b602060405180830381600087803b1580156117e757600080fd5b505af192505050801561181857506040513d601f19601f82011682018060405250810190611815919061208d565b60015b61189b573d8060008114611848576040519150601f19603f3d011682016040523d82523d6000602084013e61184d565b606091505b50600081511415611893576040517f08c379a000000000000000000000000000000000000000000000000000000000815260040161188a906124d5565b60405180910390fd5b805181602001fd5b63150b7a0260e01b7bffffffffffffffffffffffffffffffffffffffffffffffffffffffff1916817bffffffffffffffffffffffffffffffffffffffffffffffffffffffff1916149150506118f0565b600190505b949350505050565b60606000821415611940576040518060400160405280600181526020017f30000000000000000000000000000000000000000000000000000000000000008152509050611a54565b600082905060005b6000821461197257808061195b9061296e565b915050600a8261196b91906127f0565b9150611948565b60008167ffffffffffffffff81111561198e5761198d612aa4565b5b6040519080825280601f01601f1916602001820160405280156119c05781602001600182028036833780820191505090505b5090505b60008514611a4d576001826119d99190612821565b9150600a856119e891906129b7565b60306119f4919061279a565b60f81b818381518110611a0a57611a09612a75565b5b60200101907effffffffffffffffffffffffffffffffffffffffffffffffffffffffffffff1916908160001a905350600a85611a4691906127f0565b94506119c4565b8093505050505b919050565b611a638383611ad7565b611a706000848484611761565b611aaf576040517f08c379a0000000000000000000000000000000000000000000000000000000008152600401611aa6906124d5565b60405180910390fd5b505050565b6000808273ffffffffffffffffffffffffffffffffffffffff163b119050919050565b600073ffffffffffffffffffffffffffffffffffffffff168273ffffffffffffffffffffffffffffffffffffffff161415611b47576040517f08c379a0000000000000000000000000000000000000000000000000000000008152600401611b3e90612615565b60405180910390fd5b611b5081610fd1565b15611b90576040517f08c379a0000000000000000000000000000000000000000000000000000000008152600401611b8790612535565b60405180910390fd5b611b9c60008383611757565b6001600360008473ffffffffffffffffffffffffffffffffffffffff1673ffffffffffffffffffffffffffffffffffffffff1681526020019081526020016000206000828254611bec919061279a565b92505081905550816002600083815260200190815260200160002060006101000a81548173ffffffffffffffffffffffffffffffffffffffff021916908373ffffffffffffffffffffffffffffffffffffffff160217905550808273ffffffffffffffffffffffffffffffffffffffff16600073ffffffffffffffffffffffffffffffffffffffff167fddf252ad1be2c89b69c2b068fc378daa952ba7f163c4a11628f55a4df523b3ef60405160405180910390a4611cad6000838361175c565b5050565b828054611cbd9061290b565b90600052602060002090601f016020900481019282611cdf5760008555611d26565b82601f10611cf857805160ff1916838001178555611d26565b82800160010185558215611d26579182015b82811115611d25578251825591602001919060010190611d0a565b5b509050611d339190611d37565b5090565b5b80821115611d50576000816000905550600101611d38565b5090565b6000611d67611d62846126f5565b6126d0565b905082815260208101848484011115611d8357611d82612ad8565b5b611d8e8482856128c9565b509392505050565b6000611da9611da484612726565b6126d0565b905082815260208101848484011115611dc557611dc4612ad8565b5b611dd08482856128c9565b509392505050565b600081359050611de781612eb5565b92915050565b600081359050611dfc81612ecc565b92915050565b600081359050611e1181612ee3565b92915050565b600081519050611e2681612ee3565b92915050565b600082601f830112611e4157611e40612ad3565b5b8135611e51848260208601611d54565b91505092915050565b600082601f830112611e6f57611e6e612ad3565b5b8135611e7f848260208601611d96565b91505092915050565b600081359050611e9781612efa565b92915050565b600060208284031215611eb357611eb2612ae2565b5b6000611ec184828501611dd8565b91505092915050565b60008060408385031215611ee157611ee0612ae2565b5b6000611eef85828601611dd8565b9250506020611f0085828601611dd8565b9150509250929050565b600080600060608486031215611f2357611f22612ae2565b5b6000611f3186828701611dd8565b9350506020611f4286828701611dd8565b9250506040611f5386828701611e88565b9150509250925092565b60008060008060808587031215611f7757611f76612ae2565b5b6000611f8587828801611dd8565b9450506020611f9687828801611dd8565b9350506040611fa787828801611e88565b925050606085013567ffffffffffffffff811115611fc857611fc7612add565b5b611fd487828801611e2c565b91505092959194509250565b60008060408385031215611ff757611ff6612ae2565b5b600061200585828601611dd8565b925050602061201685828601611ded565b9150509250929050565b6000806040838503121561203757612036612ae2565b5b600061204585828601611dd8565b925050602061205685828601611e88565b9150509250929050565b60006020828403121561207657612075612ae2565b5b600061208484828501611e02565b91505092915050565b6000602082840312156120a3576120a2612ae2565b5b60006120b184828501611e17565b91505092915050565b6000602082840312156120d0576120cf612ae2565b5b600082013567ffffffffffffffff8111156120ee576120ed612add565b5b6120fa84828501611e5a565b91505092915050565b60006020828403121561211957612118612ae2565b5b600061212784828501611e88565b91505092915050565b61213981612855565b82525050565b61214881612867565b82525050565b600061215982612757565b612163818561276d565b93506121738185602086016128d8565b61217c81612ae7565b840191505092915050565b600061219282612762565b61219c818561277e565b93506121ac8185602086016128d8565b6121b581612ae7565b840191505092915050565b60006121cb82612762565b6121d5818561278f565b93506121e58185602086016128d8565b80840191505092915050565b60006121fe60328361277e565b915061220982612af8565b604082019050919050565b600061222160268361277e565b915061222c82612b47565b604082019050919050565b600061224460258361277e565b915061224f82612b96565b604082019050919050565b6000612267601c8361277e565b915061227282612be5565b602082019050919050565b600061228a60248361277e565b915061229582612c0e565b604082019050919050565b60006122ad60198361277e565b91506122b882612c5d565b602082019050919050565b60006122d060148361277e565b91506122db82612c86565b602082019050919050565b60006122f360298361277e565b91506122fe82612caf565b604082019050919050565b6000612316602e8361277e565b915061232182612cfe565b604082019050919050565b6000612339603e8361277e565b915061234482612d4d565b604082019050919050565b600061235c60208361277e565b915061236782612d9c565b602082019050919050565b600061237f60208361277e565b915061238a82612dc5565b602082019050919050565b60006123a260188361277e565b91506123ad82612dee565b602082019050919050565b60006123c560218361277e565b91506123d082612e17565b604082019050919050565b60006123e8602e8361277e565b91506123f382612e66565b604082019050919050565b612407816128bf565b82525050565b600061241982856121c0565b915061242582846121c0565b91508190509392505050565b60006020820190506124466000830184612130565b92915050565b60006080820190506124616000830187612130565b61246e6020830186612130565b61247b60408301856123fe565b818103606083015261248d818461214e565b905095945050505050565b60006020820190506124ad600083018461213f565b92915050565b600060208201905081810360008301526124cd8184612187565b905092915050565b600060208201905081810360008301526124ee816121f1565b9050919050565b6000602082019050818103600083015261250e81612214565b9050919050565b6000602082019050818103600083015261252e81612237565b9050919050565b6000602082019050818103600083015261254e8161225a565b9050919050565b6000602082019050818103600083015261256e8161227d565b9050919050565b6000602082019050818103600083015261258e816122a0565b9050919050565b600060208201905081810360008301526125ae816122c3565b9050919050565b600060208201905081810360008301526125ce816122e6565b9050919050565b600060208201905081810360008301526125ee81612309565b9050919050565b6000602082019050818103600083015261260e8161232c565b9050919050565b6000602082019050818103600083015261262e8161234f565b9050919050565b6000602082019050818103600083015261264e81612372565b9050919050565b6000602082019050818103600083015261266e81612395565b9050919050565b6000602082019050818103600083015261268e816123b8565b9050919050565b600060208201905081810360008301526126ae816123db565b9050919050565b60006020820190506126ca60008301846123fe565b92915050565b60006126da6126eb565b90506126e6828261293d565b919050565b6000604051905090565b600067ffffffffffffffff8211156127105761270f612aa4565b5b61271982612ae7565b9050602081019050919050565b600067ffffffffffffffff82111561274157612740612aa4565b5b61274a82612ae7565b9050602081019050919050565b600081519050919050565b600081519050919050565b600082825260208201905092915050565b600082825260208201905092915050565b600081905092915050565b60006127a5826128bf565b91506127b0836128bf565b9250827fffffffffffffffffffffffffffffffffffffffffffffffffffffffffffffffff038211156127e5576127e46129e8565b5b828201905092915050565b60006127fb826128bf565b9150612806836128bf565b92508261281657612815612a17565b5b828204905092915050565b600061282c826128bf565b9150612837836128bf565b92508282101561284a576128496129e8565b5b828203905092915050565b60006128608261289f565b9050919050565b60008115159050919050565b60007fffffffff0000000000000000000000000000000000000000000000000000000082169050919050565b600073ffffffffffffffffffffffffffffffffffffffff82169050919050565b6000819050919050565b82818337600083830152505050565b60005b838110156128f65780820151818401526020810190506128db565b83811115612905576000848401525b50505050565b6000600282049050600182168061292357607f821691505b6020821081141561293757612936612a46565b5b50919050565b61294682612ae7565b810181811067ffffffffffffffff8211171561296557612964612aa4565b5b80604052505050565b6000612979826128bf565b91507fffffffffffffffffffffffffffffffffffffffffffffffffffffffffffffffff8214156129ac576129ab6129e8565b5b600182019050919050565b60006129c2826128bf565b91506129cd836128bf565b9250826129dd576129dc612a17565b5b828206905092915050565b7f4e487b7100000000000000000000000000000000000000000000000000000000600052601160045260246000fd5b7f4e487b7100000000000000000000000000000000000000000000000000000000600052601260045260246000fd5b7f4e487b7100000000000000000000000000000000000000000000000000000000600052602260045260246000fd5b7f4e487b7100000000000000000000000000000000000000000000000000000000600052603260045260246000fd5b7f4e487b7100000000000000000000000000000000000000000000000000000000600052604160045260246000fd5b600080fd5b600080fd5b600080fd5b600080fd5b6000601f19601f8301169050919050565b7f4552433732313a207472616e7366657220746f206e6f6e20455243373231526560008201527f63656976657220696d706c656d656e7465720000000000000000000000000000602082015250565b7f4f776e61626c653a206e6577206f776e657220697320746865207a65726f206160008201527f6464726573730000000000000000000000000000000000000000000000000000602082015250565b7f4552433732313a207472616e736665722066726f6d20696e636f72726563742060008201527f6f776e6572000000000000000000000000000000000000000000000000000000602082015250565b7f4552433732313a20746f6b656e20616c7265616479206d696e74656400000000600082015250565b7f4552433732313a207472616e7366657220746f20746865207a65726f2061646460008201527f7265737300000000000000000000000000000000000000000000000000000000602082015250565b7f4552433732313a20617070726f766520746f2063616c6c657200000000000000600082015250565b7f546f6b656e20446f65736e277420657869737421000000000000000000000000600082015250565b7f4552433732313a2061646472657373207a65726f206973206e6f74206120766160008201527f6c6964206f776e65720000000000000000000000000000000000000000000000602082015250565b7f45524337323155524953746f726167653a2055524920736574206f66206e6f6e60008201527f6578697374656e7420746f6b656e000000000000000000000000000000000000602082015250565b7f4552433732313a20617070726f76652063616c6c6572206973206e6f7420746f60008201527f6b656e206f776e6572206e6f7220617070726f76656420666f7220616c6c0000602082015250565b7f4552433732313a206d696e7420746f20746865207a65726f2061646472657373600082015250565b7f4f776e61626c653a2063616c6c6572206973206e6f7420746865206f776e6572600082015250565b7f4552433732313a20696e76616c696420746f6b656e2049440000000000000000600082015250565b7f4552433732313a20617070726f76616c20746f2063757272656e74206f776e6560008201527f7200000000000000000000000000000000000000000000000000000000000000602082015250565b7f4552433732313a2063616c6c6572206973206e6f7420746f6b656e206f776e6560008201527f72206e6f7220617070726f766564000000000000000000000000000000000000602082015250565b612ebe81612855565b8114612ec957600080fd5b50565b612ed581612867565b8114612ee057600080fd5b50565b612eec81612873565b8114612ef757600080fd5b50565b612f03816128bf565b8114612f0e57600080fd5b5056fea2646970667358221220c72bb2406e6e1d36303eee49f84bd5e5bc4ab525bd945ca94d7079bc38045c0f64736f6c63430008070033",
  "linkReferences": {},
  "deployedLinkReferences": {}
}